{
  "_format": "hh-sol-artifact-1",
  "contractName": "DCarbon",
  "sourceName": "contracts/DCarbon.sol",
  "abi": [
    {
      "anonymous": false,
      "inputs": [
        {
          "indexed": false,
          "internalType": "address",
          "name": "previousAdmin",
          "type": "address"
        },
        {
          "indexed": false,
          "internalType": "address",
          "name": "newAdmin",
          "type": "address"
        }
      ],
      "name": "AdminChanged",
      "type": "event"
    },
    {
      "anonymous": false,
      "inputs": [
        {
          "indexed": true,
          "internalType": "address",
          "name": "owner",
          "type": "address"
        },
        {
          "indexed": true,
          "internalType": "address",
          "name": "spender",
          "type": "address"
        },
        {
          "indexed": false,
          "internalType": "uint256",
          "name": "value",
          "type": "uint256"
        }
      ],
      "name": "Approval",
      "type": "event"
    },
    {
      "anonymous": false,
      "inputs": [
        {
          "indexed": true,
          "internalType": "address",
          "name": "beacon",
          "type": "address"
        }
      ],
      "name": "BeaconUpgraded",
      "type": "event"
    },
    {
      "anonymous": false,
      "inputs": [
        {
          "indexed": false,
          "internalType": "uint8",
          "name": "version",
          "type": "uint8"
        }
      ],
      "name": "Initialized",
      "type": "event"
    },
    {
      "anonymous": false,
      "inputs": [
        {
          "indexed": true,
          "internalType": "address",
          "name": "previousOwner",
          "type": "address"
        },
        {
          "indexed": true,
          "internalType": "address",
          "name": "newOwner",
          "type": "address"
        }
      ],
      "name": "OwnershipTransferred",
      "type": "event"
    },
    {
      "anonymous": false,
      "inputs": [
        {
          "indexed": true,
          "internalType": "address",
          "name": "from",
          "type": "address"
        },
        {
          "indexed": true,
          "internalType": "address",
          "name": "to",
          "type": "address"
        },
        {
          "indexed": false,
          "internalType": "uint256",
          "name": "value",
          "type": "uint256"
        }
      ],
      "name": "Transfer",
      "type": "event"
    },
    {
      "anonymous": false,
      "inputs": [
        {
          "indexed": true,
          "internalType": "address",
          "name": "implementation",
          "type": "address"
        }
      ],
      "name": "Upgraded",
      "type": "event"
    },
    {
      "inputs": [
        {
          "internalType": "address",
          "name": "owner",
          "type": "address"
        },
        {
          "internalType": "address",
          "name": "spender",
          "type": "address"
        }
      ],
      "name": "allowance",
      "outputs": [
        {
          "internalType": "uint256",
          "name": "",
          "type": "uint256"
        }
      ],
      "stateMutability": "view",
      "type": "function"
    },
    {
      "inputs": [
        {
          "internalType": "address",
          "name": "spender",
          "type": "address"
        },
        {
          "internalType": "uint256",
          "name": "amount",
          "type": "uint256"
        }
      ],
      "name": "approve",
      "outputs": [
        {
          "internalType": "bool",
          "name": "",
          "type": "bool"
        }
      ],
      "stateMutability": "nonpayable",
      "type": "function"
    },
    {
      "inputs": [
        {
          "internalType": "address",
          "name": "account",
          "type": "address"
        }
      ],
      "name": "balanceOf",
      "outputs": [
        {
          "internalType": "uint256",
          "name": "",
          "type": "uint256"
        }
      ],
      "stateMutability": "view",
      "type": "function"
    },
    {
      "inputs": [],
      "name": "decimals",
      "outputs": [
        {
          "internalType": "uint8",
          "name": "",
          "type": "uint8"
        }
      ],
      "stateMutability": "view",
      "type": "function"
    },
    {
      "inputs": [
        {
          "internalType": "address",
          "name": "spender",
          "type": "address"
        },
        {
          "internalType": "uint256",
          "name": "subtractedValue",
          "type": "uint256"
        }
      ],
      "name": "decreaseAllowance",
      "outputs": [
        {
          "internalType": "bool",
          "name": "",
          "type": "bool"
        }
      ],
      "stateMutability": "nonpayable",
      "type": "function"
    },
    {
      "inputs": [],
      "name": "hello",
      "outputs": [
        {
          "internalType": "string",
          "name": "",
          "type": "string"
        }
      ],
      "stateMutability": "pure",
      "type": "function"
    },
    {
      "inputs": [
        {
          "internalType": "address",
          "name": "spender",
          "type": "address"
        },
        {
          "internalType": "uint256",
          "name": "addedValue",
          "type": "uint256"
        }
      ],
      "name": "increaseAllowance",
      "outputs": [
        {
          "internalType": "bool",
          "name": "",
          "type": "bool"
        }
      ],
      "stateMutability": "nonpayable",
      "type": "function"
    },
    {
      "inputs": [
        {
          "internalType": "address[]",
          "name": "initOwner_",
          "type": "address[]"
        },
        {
          "internalType": "uint256[]",
          "name": "amount_",
          "type": "uint256[]"
        }
      ],
      "name": "initialize",
      "outputs": [],
      "stateMutability": "nonpayable",
      "type": "function"
    },
    {
      "inputs": [],
      "name": "name",
      "outputs": [
        {
          "internalType": "string",
          "name": "",
          "type": "string"
        }
      ],
      "stateMutability": "view",
      "type": "function"
    },
    {
      "inputs": [],
      "name": "owner",
      "outputs": [
        {
          "internalType": "address",
          "name": "",
          "type": "address"
        }
      ],
      "stateMutability": "view",
      "type": "function"
    },
    {
      "inputs": [],
      "name": "proxiableUUID",
      "outputs": [
        {
          "internalType": "bytes32",
          "name": "",
          "type": "bytes32"
        }
      ],
      "stateMutability": "view",
      "type": "function"
    },
    {
      "inputs": [],
      "name": "renounceOwnership",
      "outputs": [],
      "stateMutability": "nonpayable",
      "type": "function"
    },
    {
      "inputs": [],
      "name": "symbol",
      "outputs": [
        {
          "internalType": "string",
          "name": "",
          "type": "string"
        }
      ],
      "stateMutability": "view",
      "type": "function"
    },
    {
      "inputs": [],
      "name": "totalSupply",
      "outputs": [
        {
          "internalType": "uint256",
          "name": "",
          "type": "uint256"
        }
      ],
      "stateMutability": "view",
      "type": "function"
    },
    {
      "inputs": [
        {
          "internalType": "address",
          "name": "to",
          "type": "address"
        },
        {
          "internalType": "uint256",
          "name": "amount",
          "type": "uint256"
        }
      ],
      "name": "transfer",
      "outputs": [
        {
          "internalType": "bool",
          "name": "",
          "type": "bool"
        }
      ],
      "stateMutability": "nonpayable",
      "type": "function"
    },
    {
      "inputs": [
        {
          "internalType": "address",
          "name": "from",
          "type": "address"
        },
        {
          "internalType": "address",
          "name": "to",
          "type": "address"
        },
        {
          "internalType": "uint256",
          "name": "amount",
          "type": "uint256"
        }
      ],
      "name": "transferFrom",
      "outputs": [
        {
          "internalType": "bool",
          "name": "",
          "type": "bool"
        }
      ],
      "stateMutability": "nonpayable",
      "type": "function"
    },
    {
      "inputs": [
        {
          "internalType": "address",
          "name": "newOwner",
          "type": "address"
        }
      ],
      "name": "transferOwnership",
      "outputs": [],
      "stateMutability": "nonpayable",
      "type": "function"
    },
    {
      "inputs": [
        {
          "internalType": "address",
          "name": "newImplementation",
          "type": "address"
        }
      ],
      "name": "upgradeTo",
      "outputs": [],
      "stateMutability": "nonpayable",
      "type": "function"
    },
    {
      "inputs": [
        {
          "internalType": "address",
          "name": "newImplementation",
          "type": "address"
        },
        {
          "internalType": "bytes",
          "name": "data",
          "type": "bytes"
        }
      ],
      "name": "upgradeToAndCall",
      "outputs": [],
      "stateMutability": "payable",
      "type": "function"
    }
  ],
  "bytecode": "0x60a06040523060601b60805234801561001757600080fd5b5060805160601c6119bd61005260003960008181610472015281816104bb0152818161057d015281816105bd015261065001526119bd6000f3fe6080604052600436106101145760003560e01c806352d1902d116100a057806395d89b411161006457806395d89b4114610302578063a457c2d714610317578063a9059cbb14610337578063dd62ed3e14610357578063f2fde38b1461037757600080fd5b806352d1902d1461025a57806370a082311461026f578063715018a6146102a55780637fbbe46f146102ba5780638da5cb5b146102da57600080fd5b806323b872dd116100e757806323b872dd146101c9578063313ce567146101e95780633659cfe61461020557806339509351146102275780634f1ef2861461024757600080fd5b806306fdde0314610119578063095ea7b31461014457806318160ddd1461017457806319ff1d2114610193575b600080fd5b34801561012557600080fd5b5061012e610397565b60405161013b919061170f565b60405180910390f35b34801561015057600080fd5b5061016461015f3660046115f1565b610429565b604051901515815260200161013b565b34801561018057600080fd5b506067545b60405190815260200161013b565b34801561019f57600080fd5b5060408051808201909152600d81526c3432b63637afb231b0b93137b760991b602082015261012e565b3480156101d557600080fd5b506101646101e4366004611516565b610441565b3480156101f557600080fd5b506040516012815260200161013b565b34801561021157600080fd5b506102256102203660046114ca565b610467565b005b34801561023357600080fd5b506101646102423660046115f1565b610550565b610225610255366004611551565b610572565b34801561026657600080fd5b50610185610643565b34801561027b57600080fd5b5061018561028a3660046114ca565b6001600160a01b031660009081526065602052604090205490565b3480156102b157600080fd5b506102256106f6565b3480156102c657600080fd5b506102256102d536600461161a565b61070a565b3480156102e657600080fd5b506033546040516001600160a01b03909116815260200161013b565b34801561030e57600080fd5b5061012e6108d8565b34801561032357600080fd5b506101646103323660046115f1565b6108e7565b34801561034357600080fd5b506101646103523660046115f1565b61096d565b34801561036357600080fd5b506101856103723660046114e4565b61097b565b34801561038357600080fd5b506102256103923660046114ca565b6109a6565b6060606880546103a6906118be565b80601f01602080910402602001604051908101604052809291908181526020018280546103d2906118be565b801561041f5780601f106103f45761010080835404028352916020019161041f565b820191906000526020600020905b81548152906001019060200180831161040257829003601f168201915b5050505050905090565b600033610437818585610a1c565b5060019392505050565b60003361044f858285610b40565b61045a858585610bba565b60019150505b9392505050565b306001600160a01b037f00000000000000000000000000000000000000000000000000000000000000001614156104b95760405162461bcd60e51b81526004016104b090611742565b60405180910390fd5b7f00000000000000000000000000000000000000000000000000000000000000006001600160a01b0316610502600080516020611941833981519152546001600160a01b031690565b6001600160a01b0316146105285760405162461bcd60e51b81526004016104b09061178e565b61053181610d88565b6040805160008082526020820190925261054d91839190610d90565b50565b600033610437818585610563838361097b565b61056d919061187a565b610a1c565b306001600160a01b037f00000000000000000000000000000000000000000000000000000000000000001614156105bb5760405162461bcd60e51b81526004016104b090611742565b7f00000000000000000000000000000000000000000000000000000000000000006001600160a01b0316610604600080516020611941833981519152546001600160a01b031690565b6001600160a01b03161461062a5760405162461bcd60e51b81526004016104b09061178e565b61063382610d88565b61063f82826001610d90565b5050565b6000306001600160a01b037f000000000000000000000000000000000000000000000000000000000000000016146106e35760405162461bcd60e51b815260206004820152603860248201527f555550535570677261646561626c653a206d757374206e6f742062652063616c60448201527f6c6564207468726f7567682064656c656761746563616c6c000000000000000060648201526084016104b0565b5060008051602061194183398151915290565b6106fe610f0a565b6107086000610f64565b565b600054610100900460ff161580801561072a5750600054600160ff909116105b806107445750303b158015610744575060005460ff166001145b6107a75760405162461bcd60e51b815260206004820152602e60248201527f496e697469616c697a61626c653a20636f6e747261637420697320616c72656160448201526d191e481a5b9a5d1a585b1a5e995960921b60648201526084016104b0565b6000805460ff1916600117905580156107ca576000805461ff0019166101001790555b6107d2610fb6565b610816604051806040016040528060078152602001662221b0b93137b760c91b815250604051806040016040528060038152602001622221a160e91b815250610fe5565b60005b835181101561088c5761087a84828151811061084557634e487b7160e01b600052603260045260246000fd5b602002602001015184838151811061086d57634e487b7160e01b600052603260045260246000fd5b6020026020010151611016565b80610884816118f9565b915050610819565b5080156108d3576000805461ff0019169055604051600181527f7f26b83ff96e1f2b6a682f133852f6798a09c465da95921460cefb38474024989060200160405180910390a15b505050565b6060606980546103a6906118be565b600033816108f5828661097b565b9050838110156109555760405162461bcd60e51b815260206004820152602560248201527f45524332303a2064656372656173656420616c6c6f77616e63652062656c6f77604482015264207a65726f60d81b60648201526084016104b0565b6109628286868403610a1c565b506001949350505050565b600033610437818585610bba565b6001600160a01b03918216600090815260666020908152604080832093909416825291909152205490565b6109ae610f0a565b6001600160a01b038116610a135760405162461bcd60e51b815260206004820152602660248201527f4f776e61626c653a206e6577206f776e657220697320746865207a65726f206160448201526564647265737360d01b60648201526084016104b0565b61054d81610f64565b6001600160a01b038316610a7e5760405162461bcd60e51b8152602060048201526024808201527f45524332303a20617070726f76652066726f6d20746865207a65726f206164646044820152637265737360e01b60648201526084016104b0565b6001600160a01b038216610adf5760405162461bcd60e51b815260206004820152602260248201527f45524332303a20617070726f766520746f20746865207a65726f206164647265604482015261737360f01b60648201526084016104b0565b6001600160a01b0383811660008181526066602090815260408083209487168084529482529182902085905590518481527f8c5be1e5ebec7d5bd14f71427d1e84f3dd0314c0f7b2291e5b200ac8c7c3b925910160405180910390a3505050565b6000610b4c848461097b565b90506000198114610bb45781811015610ba75760405162461bcd60e51b815260206004820152601d60248201527f45524332303a20696e73756666696369656e7420616c6c6f77616e636500000060448201526064016104b0565b610bb48484848403610a1c565b50505050565b6001600160a01b038316610c1e5760405162461bcd60e51b815260206004820152602560248201527f45524332303a207472616e736665722066726f6d20746865207a65726f206164604482015264647265737360d81b60648201526084016104b0565b6001600160a01b038216610c805760405162461bcd60e51b815260206004820152602360248201527f45524332303a207472616e7366657220746f20746865207a65726f206164647260448201526265737360e81b60648201526084016104b0565b6001600160a01b03831660009081526065602052604090205481811015610cf85760405162461bcd60e51b815260206004820152602660248201527f45524332303a207472616e7366657220616d6f756e7420657863656564732062604482015265616c616e636560d01b60648201526084016104b0565b6001600160a01b03808516600090815260656020526040808220858503905591851681529081208054849290610d2f90849061187a565b92505081905550826001600160a01b0316846001600160a01b03167fddf252ad1be2c89b69c2b068fc378daa952ba7f163c4a11628f55a4df523b3ef84604051610d7b91815260200190565b60405180910390a3610bb4565b61054d610f0a565b7f4910fdfa16fed3260ed0e7147f7cc6da11a60208b5b9406d12a635614ffd91435460ff1615610dc3576108d3836110f5565b826001600160a01b03166352d1902d6040518163ffffffff1660e01b815260040160206040518083038186803b158015610dfc57600080fd5b505afa925050508015610e2c575060408051601f3d908101601f19168201909252610e29918101906116db565b60015b610e8f5760405162461bcd60e51b815260206004820152602e60248201527f45524331393637557067726164653a206e657720696d706c656d656e7461746960448201526d6f6e206973206e6f74205555505360901b60648201526084016104b0565b6000805160206119418339815191528114610efe5760405162461bcd60e51b815260206004820152602960248201527f45524331393637557067726164653a20756e737570706f727465642070726f786044820152681a58589b195555525160ba1b60648201526084016104b0565b506108d3838383611191565b6033546001600160a01b031633146107085760405162461bcd60e51b815260206004820181905260248201527f4f776e61626c653a2063616c6c6572206973206e6f7420746865206f776e657260448201526064016104b0565b603380546001600160a01b038381166001600160a01b0319831681179093556040519116919082907f8be0079c531659141344cd1fd0a4f28419497f9722a3daafe3b4186f6b6457e090600090a35050565b600054610100900460ff16610fdd5760405162461bcd60e51b81526004016104b0906117da565b6107086111b6565b600054610100900460ff1661100c5760405162461bcd60e51b81526004016104b0906117da565b61063f82826111e6565b6001600160a01b03821661106c5760405162461bcd60e51b815260206004820152601f60248201527f45524332303a206d696e7420746f20746865207a65726f20616464726573730060448201526064016104b0565b806067600082825461107e919061187a565b90915550506001600160a01b038216600090815260656020526040812080548392906110ab90849061187a565b90915550506040518181526001600160a01b038316906000907fddf252ad1be2c89b69c2b068fc378daa952ba7f163c4a11628f55a4df523b3ef9060200160405180910390a35050565b6001600160a01b0381163b6111625760405162461bcd60e51b815260206004820152602d60248201527f455243313936373a206e657720696d706c656d656e746174696f6e206973206e60448201526c1bdd08184818dbdb9d1c9858dd609a1b60648201526084016104b0565b60008051602061194183398151915280546001600160a01b0319166001600160a01b0392909216919091179055565b61119a83611234565b6000825111806111a75750805b156108d357610bb48383611274565b600054610100900460ff166111dd5760405162461bcd60e51b81526004016104b0906117da565b61070833610f64565b600054610100900460ff1661120d5760405162461bcd60e51b81526004016104b0906117da565b81516112209060689060208501906113a6565b5080516108d39060699060208401906113a6565b61123d816110f5565b6040516001600160a01b038216907fbc7cd75a20ee27fd9adebab32041f755214dbc6bffa90cc0225b39da2e5c2d3b90600090a250565b60606001600160a01b0383163b6112dc5760405162461bcd60e51b815260206004820152602660248201527f416464726573733a2064656c65676174652063616c6c20746f206e6f6e2d636f6044820152651b9d1c9858dd60d21b60648201526084016104b0565b600080846001600160a01b0316846040516112f791906116f3565b600060405180830381855af49150503d8060008114611332576040519150601f19603f3d011682016040523d82523d6000602084013e611337565b606091505b509150915061135f828260405180606001604052806027815260200161196160279139611368565b95945050505050565b60608315611377575081610460565b610460838381511561138c5781518083602001fd5b8060405162461bcd60e51b81526004016104b0919061170f565b8280546113b2906118be565b90600052602060002090601f0160209004810192826113d4576000855561141a565b82601f106113ed57805160ff191683800117855561141a565b8280016001018555821561141a579182015b8281111561141a5782518255916020019190600101906113ff565b5061142692915061142a565b5090565b5b80821115611426576000815560010161142b565b80356001600160a01b038116811461145657600080fd5b919050565b600082601f83011261146b578081fd5b8135602061148061147b83611856565b611825565b80838252828201915082860187848660051b890101111561149f578586fd5b855b858110156114bd578135845292840192908401906001016114a1565b5090979650505050505050565b6000602082840312156114db578081fd5b6104608261143f565b600080604083850312156114f6578081fd5b6114ff8361143f565b915061150d6020840161143f565b90509250929050565b60008060006060848603121561152a578081fd5b6115338461143f565b92506115416020850161143f565b9150604084013590509250925092565b60008060408385031215611563578182fd5b61156c8361143f565b915060208084013567ffffffffffffffff80821115611589578384fd5b818601915086601f83011261159c578384fd5b8135818111156115ae576115ae61192a565b6115c0601f8201601f19168501611825565b915080825287848285010111156115d5578485fd5b8084840185840137810190920192909252919491935090915050565b60008060408385031215611603578182fd5b61160c8361143f565b946020939093013593505050565b6000806040838503121561162c578182fd5b823567ffffffffffffffff80821115611643578384fd5b818501915085601f830112611656578384fd5b8135602061166661147b83611856565b8083825282820191508286018a848660051b8901011115611685578889fd5b8896505b848710156116ae5761169a8161143f565b835260019690960195918301918301611689565b50965050860135925050808211156116c4578283fd5b506116d18582860161145b565b9150509250929050565b6000602082840312156116ec578081fd5b5051919050565b60008251611705818460208701611892565b9190910192915050565b602081526000825180602084015261172e816040850160208701611892565b601f01601f19169190910160400192915050565b6020808252602c908201527f46756e6374696f6e206d7573742062652063616c6c6564207468726f7567682060408201526b19195b1959d85d1958d85b1b60a21b606082015260800190565b6020808252602c908201527f46756e6374696f6e206d7573742062652063616c6c6564207468726f7567682060408201526b6163746976652070726f787960a01b606082015260800190565b6020808252602b908201527f496e697469616c697a61626c653a20636f6e7472616374206973206e6f74206960408201526a6e697469616c697a696e6760a81b606082015260800190565b604051601f8201601f1916810167ffffffffffffffff8111828210171561184e5761184e61192a565b604052919050565b600067ffffffffffffffff8211156118705761187061192a565b5060051b60200190565b6000821982111561188d5761188d611914565b500190565b60005b838110156118ad578181015183820152602001611895565b83811115610bb45750506000910152565b600181811c908216806118d257607f821691505b602082108114156118f357634e487b7160e01b600052602260045260246000fd5b50919050565b600060001982141561190d5761190d611914565b5060010190565b634e487b7160e01b600052601160045260246000fd5b634e487b7160e01b600052604160045260246000fdfe360894a13ba1a3210667c828492db98dca3e2076cc3735a920a3ca505d382bbc416464726573733a206c6f772d6c6576656c2064656c65676174652063616c6c206661696c6564a26469706673582212208d0d1cfc1f53c1b1aefa65048b52d7558636390117d2c3069d34fdc951292ad464736f6c63430008040033",
  "linkReferences": {},
  "deployedLinkReferences": {}
}